:020000040000FA
:020000000528D1
:040002000034003492
:080008000900220033308C00D6
:1000100021000C1023008C01210095132100683071
:10002000990022000C101630552122000C142500D6
:1000300022308C00F2010430F3004230F4006430CE
:10004000552120008C1D342822000C10163055211B
:1000500020000C08F00022000C14F0193428F215CE
:1000600072150230F3020A2921008C128C100A301A
:10007000552120008C1E0A298C1C0A2922008C1272
:100080000A30552120000C08F00022008C16F01CCC
:100090000A29F215F3030A290B00AA340B003134A4
:1000A0000B340F34243470346034743464346D345D
:1000B0007A342A346A346B34683463342834303404
:1000C00074347A3467343434713478346234773445
:1000D0007F343A346E34733464343E346B34413498
:1000E0004934563403344D344B34483452344A3452
:1000F0005D341934183440340D34423443345534AB
:1001000065340B0024340B340F343534243461341B
:100110006834663428343B342A34783462346434A6
:100120007E342F347E3474347734643460347034E5
:10013000743437347D347A347B34693468343D34F4
:100140007B347734543401345634563467340B00DE
:100150001C340B340F3440344C34563440345D344A
:100160004534473441345B34493454345B344D3482
:100170005934563440345C34403459344034463475
:100180005C34533442344C345D340B001C340B3437
:100190000F34613460347F3462346C342834633417
:1001A00068346A342C347D3463347A3461343134C5
:1001B0007934713460346C343634793468346C3466
:1001C000763450341C340B004334683461346E345C
:1001D00067346534203452344F344D342034623423
:1001E00079347434653420343034783439344234DA
:1001F0002034663472346F346D34203430347834C3
:1002000041344134203474346F3420343034783401
:100210003434323403014C207402031D112972144A
:10022000F30320000C1D1829F2181829F214F30307
:1002300072193A29F219262903018120F50075085F
:10024000812075066321F50B1F293A290301A72098
:10025000F5007508A72075066321F50B2929030110
:10026000C520F50087217508C52075069321F50B7B
:1002700033298D2121000C1200307302031D432904
:1002800022000C12630022000C12FF305D210C16BC
:10029000FF305D21F30B4329FF305D21FF305D21ED
:0A02A000FF305D21FF305D210100F9
:0602AA00F000572958295D
:1002B00059290000F00B56290800F100643055213F
:1002C000F10B5E290800F0000830F40022000C1049
:1002D0007F216A2900000C0CF100F00C710D8C00DC
:1002E0007F21F40B6B297429752900000C147F21E0
:1002F00079297A297B297C2900000C14080080299F
:1003000081298229832984298529862908002200B8
:100310008C108A2900008C12080022008C1690296B
:1003200000008C1408002200F0000830F400F00DEA
:10033000F00DF00D700802398C048C169F298C1278
:100340008C10F40B99298C16A52900008C1208003A
:020000040001F9
:02000E00A43913
:02001000FF1CD3
:00000001FF
